{
  "_format": "hh-sol-artifact-1",
  "contractName": "FungibleToken",
  "sourceName": "contracts/token/FungibleToken.sol",
  "abi": [
    {
      "inputs": [
        {
          "internalType": "string",
          "name": "name",
          "type": "string"
        },
        {
          "internalType": "string",
          "name": "symbol",
          "type": "string"
        }
      ],
      "stateMutability": "nonpayable",
      "type": "constructor"
    },
    {
      "anonymous": false,
      "inputs": [
        {
          "indexed": true,
          "internalType": "address",
          "name": "owner",
          "type": "address"
        },
        {
          "indexed": true,
          "internalType": "address",
          "name": "spender",
          "type": "address"
        },
        {
          "indexed": false,
          "internalType": "uint256",
          "name": "value",
          "type": "uint256"
        }
      ],
      "name": "Approval",
      "type": "event"
    },
    {
      "anonymous": false,
      "inputs": [
        {
          "indexed": true,
          "internalType": "address",
          "name": "from",
          "type": "address"
        },
        {
          "indexed": true,
          "internalType": "address",
          "name": "to",
          "type": "address"
        },
        {
          "indexed": false,
          "internalType": "uint256",
          "name": "value",
          "type": "uint256"
        }
      ],
      "name": "Transfer",
      "type": "event"
    },
    {
      "inputs": [],
      "name": "DOMAIN_SEPARATOR",
      "outputs": [
        {
          "internalType": "bytes32",
          "name": "",
          "type": "bytes32"
        }
      ],
      "stateMutability": "view",
      "type": "function"
    },
    {
      "inputs": [],
      "name": "PERMIT_TYPEHASH",
      "outputs": [
        {
          "internalType": "bytes32",
          "name": "",
          "type": "bytes32"
        }
      ],
      "stateMutability": "view",
      "type": "function"
    },
    {
      "inputs": [
        {
          "internalType": "address",
          "name": "owner",
          "type": "address"
        },
        {
          "internalType": "address",
          "name": "spender",
          "type": "address"
        }
      ],
      "name": "allowance",
      "outputs": [
        {
          "internalType": "uint256",
          "name": "",
          "type": "uint256"
        }
      ],
      "stateMutability": "view",
      "type": "function"
    },
    {
      "inputs": [
        {
          "internalType": "address",
          "name": "spender",
          "type": "address"
        },
        {
          "internalType": "uint256",
          "name": "amount",
          "type": "uint256"
        }
      ],
      "name": "approve",
      "outputs": [
        {
          "internalType": "bool",
          "name": "",
          "type": "bool"
        }
      ],
      "stateMutability": "nonpayable",
      "type": "function"
    },
    {
      "inputs": [
        {
          "internalType": "address",
          "name": "account",
          "type": "address"
        }
      ],
      "name": "balanceOf",
      "outputs": [
        {
          "internalType": "uint256",
          "name": "",
          "type": "uint256"
        }
      ],
      "stateMutability": "view",
      "type": "function"
    },
    {
      "inputs": [],
      "name": "decimals",
      "outputs": [
        {
          "internalType": "uint8",
          "name": "",
          "type": "uint8"
        }
      ],
      "stateMutability": "view",
      "type": "function"
    },
    {
      "inputs": [
        {
          "internalType": "address",
          "name": "spender",
          "type": "address"
        },
        {
          "internalType": "uint256",
          "name": "subtractedValue",
          "type": "uint256"
        }
      ],
      "name": "decreaseAllowance",
      "outputs": [
        {
          "internalType": "bool",
          "name": "",
          "type": "bool"
        }
      ],
      "stateMutability": "nonpayable",
      "type": "function"
    },
    {
      "inputs": [
        {
          "internalType": "address",
          "name": "spender",
          "type": "address"
        },
        {
          "internalType": "uint256",
          "name": "addedValue",
          "type": "uint256"
        }
      ],
      "name": "increaseAllowance",
      "outputs": [
        {
          "internalType": "bool",
          "name": "",
          "type": "bool"
        }
      ],
      "stateMutability": "nonpayable",
      "type": "function"
    },
    {
      "inputs": [],
      "name": "name",
      "outputs": [
        {
          "internalType": "string",
          "name": "",
          "type": "string"
        }
      ],
      "stateMutability": "view",
      "type": "function"
    },
    {
      "inputs": [
        {
          "internalType": "address",
          "name": "",
          "type": "address"
        }
      ],
      "name": "nonces",
      "outputs": [
        {
          "internalType": "uint256",
          "name": "",
          "type": "uint256"
        }
      ],
      "stateMutability": "view",
      "type": "function"
    },
    {
      "inputs": [
        {
          "internalType": "address",
          "name": "owner",
          "type": "address"
        },
        {
          "internalType": "address",
          "name": "spender",
          "type": "address"
        },
        {
          "internalType": "uint256",
          "name": "value",
          "type": "uint256"
        },
        {
          "internalType": "uint256",
          "name": "deadline",
          "type": "uint256"
        },
        {
          "internalType": "uint8",
          "name": "v",
          "type": "uint8"
        },
        {
          "internalType": "bytes32",
          "name": "r",
          "type": "bytes32"
        },
        {
          "internalType": "bytes32",
          "name": "s",
          "type": "bytes32"
        }
      ],
      "name": "permit",
      "outputs": [],
      "stateMutability": "nonpayable",
      "type": "function"
    },
    {
      "inputs": [],
      "name": "symbol",
      "outputs": [
        {
          "internalType": "string",
          "name": "",
          "type": "string"
        }
      ],
      "stateMutability": "view",
      "type": "function"
    },
    {
      "inputs": [],
      "name": "totalSupply",
      "outputs": [
        {
          "internalType": "uint256",
          "name": "",
          "type": "uint256"
        }
      ],
      "stateMutability": "view",
      "type": "function"
    },
    {
      "inputs": [
        {
          "internalType": "address",
          "name": "recipient",
          "type": "address"
        },
        {
          "internalType": "uint256",
          "name": "amount",
          "type": "uint256"
        }
      ],
      "name": "transfer",
      "outputs": [
        {
          "internalType": "bool",
          "name": "",
          "type": "bool"
        }
      ],
      "stateMutability": "nonpayable",
      "type": "function"
    },
    {
      "inputs": [
        {
          "internalType": "address",
          "name": "from",
          "type": "address"
        },
        {
          "internalType": "address",
          "name": "to",
          "type": "address"
        },
        {
          "internalType": "uint256",
          "name": "amount",
          "type": "uint256"
        }
      ],
      "name": "transferFrom",
      "outputs": [
        {
          "internalType": "bool",
          "name": "",
          "type": "bool"
        }
      ],
      "stateMutability": "nonpayable",
      "type": "function"
    }
  ],
  "bytecode": "0x60a06040523480156200001157600080fd5b50604051620020ac380380620020ac833981810160405281019062000037919062000244565b818181600390805190602001906200005192919062000116565b5080600490805190602001906200006a92919062000116565b50505060004690507f8b73c3c69bb8fe3d512ecc4cf759cc79239f7b179b0ffacaa9a75d522b39400f83805190602001206040518060400160405280600181526020017f3100000000000000000000000000000000000000000000000000000000000000815250805190602001208330604051602001620000f0959493929190620002fc565b604051602081830303815290604052805190602001206080818152505050505062000525565b828054620001249062000436565b90600052602060002090601f01602090048101928262000148576000855562000194565b82601f106200016357805160ff191683800117855562000194565b8280016001018555821562000194579182015b828111156200019357825182559160200191906001019062000176565b5b509050620001a39190620001a7565b5090565b5b80821115620001c2576000816000905550600101620001a8565b5090565b6000620001dd620001d78462000382565b62000359565b905082815260208101848484011115620001fc57620001fb62000505565b5b6200020984828562000400565b509392505050565b600082601f83011262000229576200022862000500565b5b81516200023b848260208601620001c6565b91505092915050565b600080604083850312156200025e576200025d6200050f565b5b600083015167ffffffffffffffff8111156200027f576200027e6200050a565b5b6200028d8582860162000211565b925050602083015167ffffffffffffffff811115620002b157620002b06200050a565b5b620002bf8582860162000211565b9150509250929050565b620002d481620003b8565b82525050565b620002e581620003cc565b82525050565b620002f681620003f6565b82525050565b600060a082019050620003136000830188620002da565b620003226020830187620002da565b620003316040830186620002da565b620003406060830185620002eb565b6200034f6080830184620002c9565b9695505050505050565b60006200036562000378565b90506200037382826200046c565b919050565b6000604051905090565b600067ffffffffffffffff821115620003a0576200039f620004d1565b5b620003ab8262000514565b9050602081019050919050565b6000620003c582620003d6565b9050919050565b6000819050919050565b600073ffffffffffffffffffffffffffffffffffffffff82169050919050565b6000819050919050565b60005b838110156200042057808201518184015260208101905062000403565b8381111562000430576000848401525b50505050565b600060028204905060018216806200044f57607f821691505b60208210811415620004665762000465620004a2565b5b50919050565b620004778262000514565b810181811067ffffffffffffffff82111715620004995762000498620004d1565b5b80604052505050565b7f4e487b7100000000000000000000000000000000000000000000000000000000600052602260045260246000fd5b7f4e487b7100000000000000000000000000000000000000000000000000000000600052604160045260246000fd5b600080fd5b600080fd5b600080fd5b600080fd5b6000601f19601f8301169050919050565b608051611b6462000548600039600081816104a101526107840152611b646000f3fe608060405234801561001057600080fd5b50600436106100f55760003560e01c80633950935111610097578063a457c2d711610066578063a457c2d71461029e578063a9059cbb146102ce578063d505accf146102fe578063dd62ed3e1461031a576100f5565b806339509351146101f057806370a08231146102205780637ecebe001461025057806395d89b4114610280576100f5565b806323b872dd116100d357806323b872dd1461016657806330adf81f14610196578063313ce567146101b45780633644e515146101d2576100f5565b806306fdde03146100fa578063095ea7b31461011857806318160ddd14610148575b600080fd5b61010261034a565b60405161010f9190611546565b60405180910390f35b610132600480360381019061012d9190611179565b6103dc565b60405161013f919061143a565b60405180910390f35b6101506103fa565b60405161015d9190611628565b60405180910390f35b610180600480360381019061017b9190611084565b610404565b60405161018d919061143a565b60405180910390f35b61019e61046f565b6040516101ab9190611455565b60405180910390f35b6101bc610496565b6040516101c99190611643565b60405180910390f35b6101da61049f565b6040516101e79190611455565b60405180910390f35b61020a60048036038101906102059190611179565b6104c3565b604051610217919061143a565b60405180910390f35b61023a60048036038101906102359190611017565b61056f565b6040516102479190611628565b60405180910390f35b61026a60048036038101906102659190611017565b6105b7565b6040516102779190611628565b60405180910390f35b6102886105cf565b6040516102959190611546565b60405180910390f35b6102b860048036038101906102b39190611179565b610661565b6040516102c5919061143a565b60405180910390f35b6102e860048036038101906102e39190611179565b610755565b6040516102f5919061143a565b60405180910390f35b610318600480360381019061031391906110d7565b610773565b005b610334600480360381019061032f9190611044565b610abd565b6040516103419190611628565b60405180910390f35b606060038054610359906117e9565b80601f0160208091040260200160405190810160405280929190818152602001828054610385906117e9565b80156103d25780601f106103a7576101008083540402835291602001916103d2565b820191906000526020600020905b8154815290600101906020018083116103b557829003601f168201915b5050505050905090565b60006103f06103e9610b44565b8484610b4c565b6001905092915050565b6000600254905090565b6000806104118533610abd565b90507fffffffffffffffffffffffffffffffffffffffffffffffffffffffffffffffff81146104585761045785610446610b44565b858461045291906116f7565b610b4c565b5b610463858585610d17565b60019150509392505050565b7f6e71edae12b1b97f4d1f60370fef10105fa2faae0126114a169c64845d6126c960001b81565b60006012905090565b7f000000000000000000000000000000000000000000000000000000000000000081565b60006105656104d0610b44565b8484600160006104de610b44565b73ffffffffffffffffffffffffffffffffffffffff1673ffffffffffffffffffffffffffffffffffffffff16815260200190815260200160002060008873ffffffffffffffffffffffffffffffffffffffff1673ffffffffffffffffffffffffffffffffffffffff1681526020019081526020016000205461056091906116a1565b610b4c565b6001905092915050565b60008060008373ffffffffffffffffffffffffffffffffffffffff1673ffffffffffffffffffffffffffffffffffffffff168152602001908152602001600020549050919050565b60056020528060005260406000206000915090505481565b6060600480546105de906117e9565b80601f016020809104026020016040519081016040528092919081815260200182805461060a906117e9565b80156106575780601f1061062c57610100808354040283529160200191610657565b820191906000526020600020905b81548152906001019060200180831161063a57829003601f168201915b5050505050905090565b60008060016000610670610b44565b73ffffffffffffffffffffffffffffffffffffffff1673ffffffffffffffffffffffffffffffffffffffff16815260200190815260200160002060008573ffffffffffffffffffffffffffffffffffffffff1673ffffffffffffffffffffffffffffffffffffffff1681526020019081526020016000205490508281101561072d576040517f08c379a000000000000000000000000000000000000000000000000000000000815260040161072490611608565b60405180910390fd5b61074a610738610b44565b85858461074591906116f7565b610b4c565b600191505092915050565b6000610769610762610b44565b8484610d17565b6001905092915050565b8342111561078057600080fd5b60007f00000000000000000000000000000000000000000000000000000000000000007f6e71edae12b1b97f4d1f60370fef10105fa2faae0126114a169c64845d6126c960001b898989600560008e73ffffffffffffffffffffffffffffffffffffffff1673ffffffffffffffffffffffffffffffffffffffff168152602001908152602001600020548a60405160200161082096959493929190611470565b60405160208183030381529060405280519060200120604051602001610847929190611403565b6040516020818303038152906040528051906020012090506001600560008a73ffffffffffffffffffffffffffffffffffffffff1673ffffffffffffffffffffffffffffffffffffffff16815260200190815260200160002060008282546108af91906116a1565b925050819055508773ffffffffffffffffffffffffffffffffffffffff168773ffffffffffffffffffffffffffffffffffffffff1614156108ef57600080fd5b6108f888610f96565b156109e157631626ba7e60e01b8873ffffffffffffffffffffffffffffffffffffffff16631626ba7e83868689604051602001610937939291906113c6565b6040516020818303038152906040526040518363ffffffff1660e01b81526004016109639291906114d1565b60206040518083038186803b15801561097b57600080fd5b505afa15801561098f573d6000803e3d6000fd5b505050506040513d601f19601f820116820180604052508101906109b391906111b9565b7bffffffffffffffffffffffffffffffffffffffffffffffffffffffff1916146109dc57600080fd5b610aa8565b600060018286868660405160008152602001604052604051610a069493929190611501565b6020604051602081039080840390855afa158015610a28573d6000803e3d6000fd5b505050602060405103519050600073ffffffffffffffffffffffffffffffffffffffff168173ffffffffffffffffffffffffffffffffffffffff161415610a6e57600080fd5b8873ffffffffffffffffffffffffffffffffffffffff168173ffffffffffffffffffffffffffffffffffffffff1614610aa657600080fd5b505b610ab3888888610b4c565b5050505050505050565b6000600160008473ffffffffffffffffffffffffffffffffffffffff1673ffffffffffffffffffffffffffffffffffffffff16815260200190815260200160002060008373ffffffffffffffffffffffffffffffffffffffff1673ffffffffffffffffffffffffffffffffffffffff16815260200190815260200160002054905092915050565b600033905090565b600073ffffffffffffffffffffffffffffffffffffffff168373ffffffffffffffffffffffffffffffffffffffff161415610bbc576040517f08c379a0000000000000000000000000000000000000000000000000000000008152600401610bb3906115e8565b60405180910390fd5b600073ffffffffffffffffffffffffffffffffffffffff168273ffffffffffffffffffffffffffffffffffffffff161415610c2c576040517f08c379a0000000000000000000000000000000000000000000000000000000008152600401610c2390611588565b60405180910390fd5b80600160008573ffffffffffffffffffffffffffffffffffffffff1673ffffffffffffffffffffffffffffffffffffffff16815260200190815260200160002060008473ffffffffffffffffffffffffffffffffffffffff1673ffffffffffffffffffffffffffffffffffffffff168152602001908152602001600020819055508173ffffffffffffffffffffffffffffffffffffffff168373ffffffffffffffffffffffffffffffffffffffff167f8c5be1e5ebec7d5bd14f71427d1e84f3dd0314c0f7b2291e5b200ac8c7c3b92583604051610d0a9190611628565b60405180910390a3505050565b600073ffffffffffffffffffffffffffffffffffffffff168373ffffffffffffffffffffffffffffffffffffffff161415610d87576040517f08c379a0000000000000000000000000000000000000000000000000000000008152600401610d7e906115c8565b60405180910390fd5b600073ffffffffffffffffffffffffffffffffffffffff168273ffffffffffffffffffffffffffffffffffffffff161415610df7576040517f08c379a0000000000000000000000000000000000000000000000000000000008152600401610dee90611568565b60405180910390fd5b610e02838383610fa9565b60008060008573ffffffffffffffffffffffffffffffffffffffff1673ffffffffffffffffffffffffffffffffffffffff16815260200190815260200160002054905081811015610e88576040517f08c379a0000000000000000000000000000000000000000000000000000000008152600401610e7f906115a8565b60405180910390fd5b8181610e9491906116f7565b6000808673ffffffffffffffffffffffffffffffffffffffff1673ffffffffffffffffffffffffffffffffffffffff16815260200190815260200160002081905550816000808573ffffffffffffffffffffffffffffffffffffffff1673ffffffffffffffffffffffffffffffffffffffff1681526020019081526020016000206000828254610f2491906116a1565b925050819055508273ffffffffffffffffffffffffffffffffffffffff168473ffffffffffffffffffffffffffffffffffffffff167fddf252ad1be2c89b69c2b068fc378daa952ba7f163c4a11628f55a4df523b3ef84604051610f889190611628565b60405180910390a350505050565b600080823b905060008111915050919050565b505050565b600081359050610fbd81611abb565b92915050565b600081359050610fd281611ad2565b92915050565b600081519050610fe781611ae9565b92915050565b600081359050610ffc81611b00565b92915050565b60008135905061101181611b17565b92915050565b60006020828403121561102d5761102c611895565b5b600061103b84828501610fae565b91505092915050565b6000806040838503121561105b5761105a611895565b5b600061106985828601610fae565b925050602061107a85828601610fae565b9150509250929050565b60008060006060848603121561109d5761109c611895565b5b60006110ab86828701610fae565b93505060206110bc86828701610fae565b92505060406110cd86828701610fed565b9150509250925092565b600080600080600080600060e0888a0312156110f6576110f5611895565b5b60006111048a828b01610fae565b97505060206111158a828b01610fae565b96505060406111268a828b01610fed565b95505060606111378a828b01610fed565b94505060806111488a828b01611002565b93505060a06111598a828b01610fc3565b92505060c061116a8a828b01610fc3565b91505092959891949750929550565b600080604083850312156111905761118f611895565b5b600061119e85828601610fae565b92505060206111af85828601610fed565b9150509250929050565b6000602082840312156111cf576111ce611895565b5b60006111dd84828501610fd8565b91505092915050565b6111ef8161172b565b82525050565b6111fe8161173d565b82525050565b61120d81611749565b82525050565b61122461121f82611749565b61181b565b82525050565b60006112358261165e565b61123f8185611674565b935061124f8185602086016117b6565b6112588161189a565b840191505092915050565b600061126e82611669565b6112788185611685565b93506112888185602086016117b6565b6112918161189a565b840191505092915050565b60006112a9602383611685565b91506112b4826118b8565b604082019050919050565b60006112cc602283611685565b91506112d782611907565b604082019050919050565b60006112ef600283611696565b91506112fa82611956565b600282019050919050565b6000611312602683611685565b915061131d8261197f565b604082019050919050565b6000611335602583611685565b9150611340826119ce565b604082019050919050565b6000611358602483611685565b915061136382611a1d565b604082019050919050565b600061137b602583611685565b915061138682611a6c565b604082019050919050565b61139a8161179f565b82525050565b6113a9816117a9565b82525050565b6113c06113bb826117a9565b611825565b82525050565b60006113d28286611213565b6020820191506113e28285611213565b6020820191506113f282846113af565b600182019150819050949350505050565b600061140e826112e2565b915061141a8285611213565b60208201915061142a8284611213565b6020820191508190509392505050565b600060208201905061144f60008301846111f5565b92915050565b600060208201905061146a6000830184611204565b92915050565b600060c0820190506114856000830189611204565b61149260208301886111e6565b61149f60408301876111e6565b6114ac6060830186611391565b6114b96080830185611391565b6114c660a0830184611391565b979650505050505050565b60006040820190506114e66000830185611204565b81810360208301526114f8818461122a565b90509392505050565b60006080820190506115166000830187611204565b61152360208301866113a0565b6115306040830185611204565b61153d6060830184611204565b95945050505050565b600060208201905081810360008301526115608184611263565b905092915050565b600060208201905081810360008301526115818161129c565b9050919050565b600060208201905081810360008301526115a1816112bf565b9050919050565b600060208201905081810360008301526115c181611305565b9050919050565b600060208201905081810360008301526115e181611328565b9050919050565b600060208201905081810360008301526116018161134b565b9050919050565b600060208201905081810360008301526116218161136e565b9050919050565b600060208201905061163d6000830184611391565b92915050565b600060208201905061165860008301846113a0565b92915050565b600081519050919050565b600081519050919050565b600082825260208201905092915050565b600082825260208201905092915050565b600081905092915050565b60006116ac8261179f565b91506116b78361179f565b9250827fffffffffffffffffffffffffffffffffffffffffffffffffffffffffffffffff038211156116ec576116eb611837565b5b828201905092915050565b60006117028261179f565b915061170d8361179f565b9250828210156117205761171f611837565b5b828203905092915050565b60006117368261177f565b9050919050565b60008115159050919050565b6000819050919050565b60007fffffffff0000000000000000000000000000000000000000000000000000000082169050919050565b600073ffffffffffffffffffffffffffffffffffffffff82169050919050565b6000819050919050565b600060ff82169050919050565b60005b838110156117d45780820151818401526020810190506117b9565b838111156117e3576000848401525b50505050565b6000600282049050600182168061180157607f821691505b6020821081141561181557611814611866565b5b50919050565b6000819050919050565b6000611830826118ab565b9050919050565b7f4e487b7100000000000000000000000000000000000000000000000000000000600052601160045260246000fd5b7f4e487b7100000000000000000000000000000000000000000000000000000000600052602260045260246000fd5b600080fd5b6000601f19601f8301169050919050565b60008160f81b9050919050565b7f45524332303a207472616e7366657220746f20746865207a65726f206164647260008201527f6573730000000000000000000000000000000000000000000000000000000000602082015250565b7f45524332303a20617070726f766520746f20746865207a65726f20616464726560008201527f7373000000000000000000000000000000000000000000000000000000000000602082015250565b7f1901000000000000000000000000000000000000000000000000000000000000600082015250565b7f45524332303a207472616e7366657220616d6f756e742065786365656473206260008201527f616c616e63650000000000000000000000000000000000000000000000000000602082015250565b7f45524332303a207472616e736665722066726f6d20746865207a65726f20616460008201527f6472657373000000000000000000000000000000000000000000000000000000602082015250565b7f45524332303a20617070726f76652066726f6d20746865207a65726f2061646460008201527f7265737300000000000000000000000000000000000000000000000000000000602082015250565b7f45524332303a2064656372656173656420616c6c6f77616e63652062656c6f7760008201527f207a65726f000000000000000000000000000000000000000000000000000000602082015250565b611ac48161172b565b8114611acf57600080fd5b50565b611adb81611749565b8114611ae657600080fd5b50565b611af281611753565b8114611afd57600080fd5b50565b611b098161179f565b8114611b1457600080fd5b50565b611b20816117a9565b8114611b2b57600080fd5b5056fea2646970667358221220563f26bec0b408b975793aad3d4635558ee4ccb8733462849b0e4183cd2b3e6a64736f6c63430008050033",
  "linkReferences": {},
  "deployedLinkReferences": {}
}